:020000040800F2
:10000000D007002023B6020827B6020827B6020848
:100010005BE2020827B6020827B6020827B60208E4
:1000200027B6020827B6020827B6020845230408A7
:1000300027B6020827B60208E92204081F4B040865
:1000400027B6020827B6020827B6020827B6020814
:1000500027B6020827B6020827B6020827B6020804
:1000600027B6020827B6020827B6020827B60208F4
:1000700027B6020827B6020845F30008515C0308BA
:1000800027B6020827B6020827B6020827B60208D4
:1000900027B6020827B6020827B6020827B60208C4
:1000A00027B6020827B6020827B6020827B60208B4
:1000B000B1C2012027B6020827B6020827B60208F7
:1000C00027B6020827B6020827B602084997000893
:1000D00027B6020827B6020827B602080D31000825
:1000E000ED30000803B9020809B902080FB9020887
:1000F00027B60208AD870208A990020895180408DF
:1001000091180408F5870208AB1804089918040828
:10011000799002089D1804080D9E0208E9900208D3
:1001200027B6020827B6020827B6020827B6020833
:100130006BD5020827B6020827B6020827B60208C0
:1001400027B6020827B6020827B6020827B6020813
:1001500027B6020827B6020827B6020827B6020803
:1001600027B6020827B6020827B6020827B60208F3
:1001700027B6020827B6020827B6020827B60208E3
:1001800027B60208D571000827B6020841640408A2
:100190005173020827B602087D710208B171020886
:1001A00027B6020827B6020827B6020827B60208B3
:0401B00027B6020864
:1001C000F0B5114A114C124E00F00105E3695F07CA
:1001D00013D40DB9334213D103EA00078F4207D17C
:1001E0000B4A1A40002A14BF6FF001000020F0BD36
:1001F000013AEBD16FF00200F9E74FF0FF30F6E77C
:100200006FF00100F3E700BF8096980000000350F4
:10021000020001000B4B70B5D96911F480310DD18A
:1002200001244FF48072084E084DF46020462C647F
:100230001A61FFF7C5FF3464EC6070BD6FF0010018
:10024000FBE700BF000003500010035000200350E4
:100250004FF4803238B50E4B0E4C9A66E56941F684
:10026000713315400122E3630B4B0021DA60022356
:10027000606121202361FFF7A3FF10B92120FFF760
:100280009FFF0122054BDA600DB10023E36338BD07
:100290000090005000000350001003500020035055
:1002A00070B5134C6061E3695B071ED40E4656F8C7
:1002B000043B8D18A361AE420BD104230021212001
:1002C0002361FFF77DFF58B9BDE870402120FFF79B
:1002D00077BF08210846FFF773FF10B1042323619D
:1002E00070BD56F8043BA361E5E74FF0FF30F7E738
:1002F000000003502DE9F84316464FF48032184BA6
:1003000089469A6603F51C33DA69074602F4803899
:1003100041F67132DA63012203F58053114DDA6040
:1003200066B930460122104BDA60B8F1000F03D0F5
:100330000022A3F50053DA63BDE8F88307F5005403
:100340002C40E41BB44228BF344649462246384676
:10035000FFF7A6FF0028E5D12744A144361BDFE7BD
:100360000090005000E0FFFF0020035010B582B065
:1003700001A90DF1030000F0E7F8019A92F840306E
:100380005BB2002B0FDD0949D36A496B19420AD0D1
:1003900092F840100648074C013949B282F84010E3
:1003A00063634362836402B010BD00BF0000045069
:1003B00000100450002004502DE9F04F85B003A92F
:1003C0000DF10B0000F0C0F8039C94F82950D4F80C
:1003D0000C8004EB45039B8C94F82A60A068626B48
:1003E000216A08EB830306B1490803EB810C11680D
:1003F000494E21F07F4100EB810094F84210D778FC
:1004000001EB410106EB0111168908615068013EBC
:1004100020F07F4008EB800048614048009740EAA8
:100420000610C860206B064601903D488662466211
:1004300049696163E18C21B1013505F0010584F85A
:1004400029501832944553D3A646364FDFF8DC9036
:100450005EF8386B20E01AF0040F0CBF594694F890
:10046000291002F10C021CBF04EB4101898C5D6173
:1004700018BF08EB810121F00301C3F818E01AF05E
:10048000020FC3F81090D9611EBFD96941F0020173
:10049000D96162455B462BD852F80C1C12F8050C4A
:1004A00021F07F41043006EB810154F820B012F8AE
:1004B00009AC32F8025C596052F8080C32F8041C9E
:1004C00020F07F400BEB80000139986047EA011172
:1004D00003F11000196020F0030141F0020103F163
:1004E000200BD960002DB6D10C3262450346D3D91A
:1004F000009AD2070CD40C490C4A019858609960B4
:100500001A6053F8041C43F00202D96043F8042C2B
:1005100005B0BDE8F08F00BF5800045000003F0850
:1005200000100450080020083C1004500A00300855
:100530004FF0BA43196ADA6903F500530A40DA61E9
:10054000704700BF000000005FF800F0A13B040806
:10055000000000000000000000000000000000009B
:10056000013800D0FCE770472DE9F04F99B0814683
:100570000C92C269229C0A91139357EC106B8DED7B
:100580000E0B82B9102012F053FD0246C9F81C0070
:1005900020B9AD4BEF21AD4811F076FF0023C0E943
:1005A00001330360C360116859B1526801234846A2
:1005B00093404A608B6012F081FDD9F81C30002214
:1005C0001A60B7F10008B7BF0123002328F00048E4
:1005D0002360A8BF23609E4BB8BFCDF83C8033EAB0
:1005E00008031AD1C8F3130842F20F73139A58EA9A
:1005F0000608136000F06B85239B53B9954B21E0EF
:10060000954B00930833239A1360009819B0BDE806
:10061000F08F904B00930333F5E79DED0E7B0022A6
:10062000002351EC170B8DED067B11F01DFC82466B
:1006300050B10123139A1360239B13B1874B239A64
:100640001360874B0093E0E79DED060B16AA17A9F0
:10065000484612F0C1FF169D5FEA1854019077D00A
:10066000079BA4F2FF34CDF850A0C3F3130343F06B
:100670007F53DDE9060143F4401319460022794B0C
:1006800010F0D2FF6AA3D3E9002311F085F96AA321
:10069000D3E9002310F0CAFF06460F46204611F0AA
:1006A00011F967A3D3E9002311F076F902460B464E
:1006B0003046394610F0BAFF06460F4611F006FCE8
:1006C0000022804600233046394611F0D7FB48B15E
:1006D000404611F0F7F832463B4611F0C5FB08B929
:1006E00008F1FF38B8F1160F51D85F4B03EBC80380
:1006F000DDE90601D3E9002311F0C0FB002848D052
:1007000008F1FF38002312932D1B6B1E089345BF81
:100710000023C5F1010700270893B8F1000F3ADB69
:10072000089BCDF8348043440893002309930A9B27
:10073000092B63D8052BC5BF043B002401240A9371
:100740000A9B023B032B65D8DFE803F05456382D93
:10075000179C2C4404F23243202BC9BFC3F1400341
:10076000C3F1200308FA03F804F21243D8BF06FAD3
:1007700003F004F1FF34C4BF26FA03F348EA030090
:1007800011F090F80122A1F1F873149275E701239A
:10079000B9E71290B8E7C8F10003A7EB080709937F
:1007A00000230D93C3E701230B930C9B4344059354
:1007B0000133012B0493B8BF012306E001230B93FF
:1007C0000C9B002B29DDCDE90433D9F81C00002156
:1007D000042202F114054E1C9D4223D94160484673
:1007E00012F02EFC0090002842D1204B024640F22D
:1007F000AF11D0E60023E2E70023D5E70124002370
:10080000CDE90A344FF0FF330022CDE9043312233F
:100810000C92DAE701230B93F4E701231A46CDE9A2
:100820000433F5E752003146D3E700BFAFF3008051
:1008300061436F63A787D23FB3C8608B288AC63FE6
:10084000FB799F501344D33F879304089E93040879
:100850000000F07F839304087A93040857930408F8
:10086000569304080000F83F9048050820940408B7
:10087000D9F81C30009A1A60049B0E2B00F2A1805C
:10088000002C00F09E80B8F1000F36DD08F00F025A
:100890009D4B18F4807F4FEA281503EBC203D3E980
:1008A00000AB16D0994B05F00F050324D3E90823BC
:1008B000DDE9060111F09AF9CDE90201934E75B90F
:1008C00052465B46DDE9020111F090F982468B4603
:1008D0002DE09DED067B02248DED027BEEE7E9071E
:1008E00008D5504659460134D6E9002311F054F892
:1008F00082468B466D100836E1E700F0AD80C8F106
:100900000005814B814E022405F00F022D1103EBEF
:10091000C203DDE90601D3E9002311F03DF800230D
:1009200082468B46002D40F08C80002BCED1129B4E
:10093000002B00F095800022754B5046594611F06F
:100940009DFA002800F08C80049B002B00F088802A
:10095000059B002B35DD08F1FF3350465946002238
:10096000029301346B4B11F017F8059E82468B46BB
:10097000204610F0A7FF52465B4611F00DF800220A
:10098000654B10F053FE0446A1F15075CDE91045BA
:10099000002E69D10022614B5046594610F044FEAA
:1009A00022462B4682468B4611F086FA002840F0FC
:1009B0009482224605F100435046594611F05EFAF2
:1009C00020BB179B002BC0F26081B8F10E0F00F323
:1009D0005C814D4B03EBC803D3E900AB0C9B002BB0
:1009E00080F2EE80049B002B00F3EA800ED10022FF
:1009F0004A4B5046594610F0CFFF02460B46DDE900
:100A0000060111F045FA002800F06A8200252C4604
:100A10000C9B009EDB430293274600242946484650
:100A200012F04CFB002F00F0C1802CB1BC4203D06F
:100A30002146484612F042FB3946484612F03EFB3A
:100A4000B4E0EA0705D50134D6E9002310F0A4FF8D
:100A500001236D10083665E7DDE906AB022466E781
:100A6000049ECDF8088083E7274B03EBC60353E9C8
:100A700002010B9B002B55D002460B460020284953
:100A800011F0B4F8DDE9102310F0CEFD009B9D19A4
:100A90001E46CDE910015946504611F017FA04469A
:100AA00010F010FF024630340B465046594610F005
:100AB000BBFD06F8014B82468B46DDE9102311F0A1
:100AC000DDF9002872D152465B460020104910F033
:100AD000ABFDDDE9102311F0D1F9002840F0B6801C
:100AE000AE423FF46EAF00220A4BDDE9100110F078
:100AF00053FF0022074BCDE910015046594610F034
:100B00004BFF82468B46C6E79048050868480508B3
:100B10000000F03F0000244000001C400000144092
:100B20000000E03FDDE9102310F036FF009B009D40
:100B30003344CDE9100115935946504611F0C6F9DA
:100B4000044610F0BFFE0B4602465946504630346C
:100B500010F06AFD159B05F8014B82469D428B46BD
:100B600027D1009B00221E44B44BDDE9100110F098
:100B70005DFD02460B465046594611F09DF900288E
:100B800064D10020AD49DDE9102310F04DFD02468F
:100B90000B465046594611F071F900283FF411AF49
:100BA000334616F8012D302AFAD01E46DDF80880AB
:100BB0003AE00022A24B10F0EFFE82468B46BBE7E4
:100BC000009E52465B46DDE9060111F00FF811F078
:100BD0007DF9074610F076FE52465B4610F0DCFECB
:100BE00002460B46DDE9060110F01EFD07F1300C50
:100BF000009C024606F801CB0B46A6EB040C049CB5
:100C0000644533D110F012FD52465B4604460D4652
:100C100011F052F9C0B952465B462046294611F000
:100C200023F908B1FB070FD40199484612F046FAA0
:100C30000023139A337008F101031360239B002BE8
:100C40003FF4E3AC1E60E0E4CDF8088033461E4676
:100C500013F8012D392A06D1009A9A42F7D1029A47
:100C600001320292302201321A709FE70022744B47
:100C700010F092FE02460B46CDE906230022002327
:100C800011F0F2F800289CD0CEE70B9A002A00F071
:100C9000E3800A9A012A00F3C280149A002A00F025
:100CA000BA8003F23343099D3E46089A0121484623
:100CB0001F441A44089212F06BFA044656B1089B7E
:100CC000002B07DDB342089AA8BF3346FF1AF61A75
:100CD000D31A0893099B0BB30B9B002B00F0C38026
:100CE000002D00F0BD8021462A46484612F010FB38
:100CF000019A01460446484612F060FA019982467C
:100D0000484612F0DBF9099B5B1B099300F0AE80AB
:100D1000099A5146484612F0FBFA019001214846D3
:100D200012F036FA0D9B0546002B00F0D7811A46CB
:100D30000146484612F0ECFA0A9B0546012B00F3E7
:100D40009D800E9B002B40F094800F9BC3F31303F8
:100D5000002B40F08E800F9B23F000431B0D1B05E2
:100D6000002B00F08980089B01374FF0010A013306
:100D700008930D9B002B00F0B7812B6905EB8303D3
:100D8000186935F0C5FCC0F12000089B184410F02C
:100D90001F007ED0C0F12003042B72DDC0F11C00C7
:100DA000089B0744034406440893002F05DD3A4698
:100DB0000199484612F008FB0190089B002B05DDC5
:100DC00029461A46484612F0FFFA0546129B002BA8
:100DD00061D02946019835F0E7FC00285BDA08F17C
:100DE000FF330A22019948460293002312F088F942
:100DF0000B9B0190002B00F07981002321460A22F1
:100E0000484612F07DF9059B0446002B72DC0A9BD4
:100E1000022B49DC6EE0169BC3F1360343E7049BCB
:100E20005D1E099BAB420DDB5D1B049B002BBFF6D7
:100E30003BAF049BFE1A002337E700BF0000E03FF2
:100E400000002440099B3E460D9AEB1A09950025A7
:100E50001A44049B0D9228E7099D3E460B9C2DE702
:100E6000DDF804A054E7099A019953E7CDF804A0EE
:100E700054E74FF0000A7CE79A467AE74FF0000A01
:100E80007BE792D01C33089A1A441F441E440892F0
:100E90008BE70346F6E7049BCDF80880002B23DCA4
:100EA00005930A9B022B21DD059B002B7FF4B0AD3F
:100EB00029460522484612F023F9014605460198C5
:100EC00035F072FC00287FF7A3AD3123009E06F8B1
:100ED000013B029B013302939EE535462C46F4E725
:100EE000049DCDF80880F9E7049B05930B9B002B2C
:100EF00000F00081002E05DD21463246484612F002
:100F000063FA0446BAF1000F5AD06168484612F0FD
:100F100097F8064628B9824B024640F2EF21FFF7C8
:100F20003ABB226904F10C010C300232920035F018
:100F300046FB01223146484612F046FA0746009B1E
:100F4000009A03F1010B059B134406930E9B03F0DB
:100F5000010308930BF1FF3329460198049335F000
:100F60004AFB2146059000F1300A019835F01CFC3F
:100F70003A4680462946484612F092FAC26806462A
:100F800002BB0146019835F00FFC02463146484647
:100F9000099212F093F85E46DDE9092342EA030163
:100FA000089B194310D1BAF1390F2BD0B8F1000FBB
:100FB00002DD059B03F1310A049B83F800A02DE5B7
:100FC0002746BCE70122E1E7B8F1000F06DB0A9BE8
:100FD00048EA0308089B58EA030820D1002AEBDD01
:100FE00001220199484612F0EFF92946019035F0A7
:100FF000DBFB002803DCDFD11AF0010FDCD0BAF1F3
:10100000390FD6D13923049A137033461E46013B5B
:1010100016F8012C392A52D001321A70FEE4002A47
:1010200007DDBAF1390FEDD00AF10103049A13700C
:10103000F4E4069B0BF801AC5B452AD000230A229E
:101040000199484612F05CF8BC4201904FF0000351
:101050004FF00A022146484606D112F051F80446E4
:1010600007460BF1010B75E712F04AF839460446C2
:1010700000230A22484612F043F80746F1E7059B91
:10108000274600245E1E002B009BD8BF00265A1C5A
:10109000164401220199484612F096F9294601901A
:1010A00035F082FB0028B0DC02D11AF0010FACD180
:1010B00033461E4613F8012D302AFAD0AEE4009ACA
:1010C0009A42A3D1029B013302933123AFE7239BC2
:1010D000002B7FF495AA134BFFF7B4BA0A9B012BA0
:1010E0007FF72FAEDDF834A001204EE6059B002BE4
:1010F0007FF7D7AE009E2946019835F07CFA009B19
:1011000000F1300A06F801ABF21A059B9342B6DDF6
:1011100000230A220199484611F0F2FF0190EAE704
:10112000209404087A9304080348044B834202D0B5
:10113000034B03B11847704740C7012040C7012047
:1011400000000000064B0749C91A891048BF013149
:10115000491003D0044B0BB101481847704700BF3A
:1011600040C7012040C701200000000010B5064C18
:10117000237843B9FFF7D8FF044B13B10448AFF30A
:1011800000800123237010BDDAB9012000000000A7
:101190006C8C050808B5054B1BB105490548AFF334
:1011A0000080BDE80840FFF7CDBF00BF0000000091
:1011B000D80A00206C8C0508A3F5803A704700BF60
:1011C000174B002B08BF134B9D46FFF7F5FF00217F
:1011D0008B460F461348144A121A35F0B6F90E4BD7
:1011E000002B00D098470D4B002B00D098470020D3
:1011F000002104000D000D48002802D00C48AFF378
:10120000008011F0BDFE200029002DF044F811F0FF
:1012100059F900BF000008000000000000000000B5
:10122000D0070020D007002040BF012000000000B0
:101230000000000073B5044615F0BEFF002845D13C
:101240000323E382042301266375A368267643F40F
:101250008013A3602DF067F8A368A0801B030CD453
:10126000B0F5FA7F09D944F01BFD054631463046FA
:1012700042F0ECFD284644F00EFD204615F0C4FF78
:10128000054600BB124818F055FE37F0E0F837F07D
:10129000B6FC14F051FD38F095FE36F080FD2A467C
:1012A0000121042037F0A8F801A88DF8045016F0A9
:1012B00061F90321042018F04BFB0A2014F00CFB09
:1012C000204629F0D9FA284602B070BD0025FAE779
:1012D000FEC6012070B50546002644F0EAFCAC6865
:1012E00004B1AE6044F0E0FC74B94FF0FF316868BF
:1012F00043F067FE0028F0D0063006288EBF012498
:10130000024B1C5C44F00044204670BDAC640408F1
:1013100038B50446084D2046FFF7DCFF2B6803F084
:101320003803202B02D1284634F037FC082103482B
:1013300029F0AAFAEFE700BFDBB90120140B002067
:101340002DE9F0471C4607460E46154643F074FC4F
:10135000DFF86890D9F80030834207D123462A4647
:1013600031463846BDE8F04712F068BDDFF85080DE
:10137000D8F8000043F07BFE0B4B48461F600B4B38
:1013800004211E600A4B1D600A4B1C6005230A4C99
:10139000236029F079FA4FF0FF31D8F8000043F0CC
:1013A00010FE2068BDE8F087300B00202C0B0020D9
:1013B000280B0020240B0020200B0020140B002001
:1013C000F00A002010B50748074C29F074FA0748C6
:1013D00029F071FA236823B1206843F08BFD0023C4
:1013E000236010BD080B0020F80A0020FC0A002032
:1013F0002DE9F041054608242846FFF76BFF04431A
:10140000E607F9D521F01AFC0546002835D1384AFF
:10141000137803F0FD0343F004031370354E364F89
:10142000DFF8F080E3062BD50024344E21F016FCC3
:10143000FFF7C8FF7068346043F02AFE01226FF0A6
:101440005F012B4B74601A702D4B18781970597806
:10145000002D46D00321597099789A70DA780622C7
:10146000ADB2DA709D809C71254834F096FB43F054
:10147000E3FBBDE8F04143F0E1BB44F01004CDE7ED
:1014800060070FD51F493368D8F80020386809680D
:1014900012F0D4FC1C4B24F0040418601B4B186899
:1014A00043F0BDFD21F0E0F921070ED521F00CFA43
:1014B00058B113483FF086FC0028B3D14FF4803177
:1014C000134824F0080429F0DFF93FF094FC08B930
:1014D0002207E7D40948FFF7FDFE0443A2D50824FC
:1014E000E0E75D7099789A70D978DA70BCE700BF50
:1014F000DFBA0120240B0020300B0020140B002049
:10150000DBB901202C0B0020200B0020F00A00206A
:10151000FC0A0020280B002038B5002101200B4ACE
:1015200043F000FD0A4C2060236853B1094843F0A2
:101530004FFC094B18601D682DB9206843F0A8FDC9
:101540002560012038BD0020FCE700BF3896040864
:10155000F00A002048960408F40A002010B5144C44
:101560001448236843F034FC2060236813B9012435
:10157000204610BD104B114A1149124829F0AAF912
:101580000028F4D1104B114A1149124829F0A2F950
:101590000028ECD1104B114A1149124829F09AF950
:1015A00004460028E3D1104812F0AEFCE0E700BF8B
:1015B000F80A002058960408E0960408F113000881
:1015C000D0960408140B0020AC960408A7A80208C3
:1015D0009C960408080B0020789604081113000854
:1015E00068960408FC0A0020411300084FF480713B
:1015F000014829F049B900BF080B00200221014829
:1016000029F042B9140B002008B541F055FFB0B9DC
:101610000E4B187810F0010010D043F00DFB0C4B6E
:101620001B6883420DD00B4B4FF0FF31186843F01D
:1016300006FC0630062806D8074B185C08BD1420A7
:10164000FCE72020FAE70120F8E700BFDFBA01201D
:10165000140B0020F40A0020AC64040808B5084B01
:101660001B78DB070BD543F0E7FA064B1B68834278
:1016700005D0054B1868BDE8084043F005BC08BD1F
:10168000DFBA0120140B0020F40A0020024A13786C
:1016900043F0010313707047DFBA012008B50A4B0D
:1016A0001A7812070DD41A7812F0060F07D11A789B
:1016B000012142F0020205481A7029F0E5F80020E5
:1016C00008BD0220FCE700BFDFBA0120140B002098
:1016D00008B5FFF721FF0449044821F079FABDE875
:1016E000084021F0A5BA00BF04970408F897040841
:1016F000F8B50E460546D0B1C9B10E4B0E4F19686C
:10170000386803F083FA044678B9062332460B4959
:10171000386803F043FB044638B901232A460849D8
:10172000386803F03BFB00B12C702046F8BD212443
:10173000FBE700BF08C3012028C301202C000400E0
:101740003C0004002DE9F041054688461E4614463B
:101750008AB0002A63D0002B61D06B4602F1100CD6
:101760001F4610685168083203C762453B46F7D1EF
:101770006B4613F8011B02F8011DA242F9D104AF18
:1017800018220021384634F0E0FE00F07FFF0028E8
:1017900035D13946306829F022FA70BB306800F044
:1017A000BBFB60BB1F4B07931F4BCDE9043818F000
:1017B000FF0330D032680AB103B10992EA0448BF8E
:1017C00045F48065AB0448BF45F4006533461022FC
:1017D00021463846069500F095FC0546E8B91021EB
:1017E000204600F0C9F8336823601021684600F0F5
:1017F000C3F828460AB0BDE8F0818830D2D0102561
:101800006A46134603CBBB42206061601A4604F16E
:101810000804F6D1E9E70993CCE70125F0E7222592
:10182000E7E700BF00014405002480002DE9F047F0
:101830008AB08946164698460746DDF848A0002833
:101840003DD000293BD0002B39D0BAF1000F36D063
:10185000BAB300F01BFF20B1192420460AB0BDE83E
:10186000F087341D20462CF09EFA05460028F3D060
:1018700009ABCDE905430124CDE90360124BCDF856
:101880000880009301944A460D231049386800F0FF
:101890000DFE814640B9AB59324629464046CAF84A
:1018A000003034F08CFE4C46386801F0CFF8284602
:1018B000042100F061F8284644F031FDCDE72224F0
:1018C000CBE72B24C9E700BF8C980408000144052E
:1018D00008B5034844F0CCFBBDE8084034F065B9D6
:1018E000D4990408014844F0C3BB00BFD49904084C
:1018F000002307B50193054B1B6843F01FFD019BB7
:10190000002BFCD003B05DF804FB00BFE4C2012053
:10191000EFF305830F2B84BF034A9B5C4FF0E0235A
:10192000D3F80C3D704700BFF0E300E008B500219C
:101930006FF004002BF01BFE42F0CCFE4FF47A73E4
:1019400000F2E730B0FBF3F0084B094A18604FF0A3
:10195000FF33B3FBF0F30A3B136044F02DFD054B5E
:1019600018600120BDE8084040F0F8BC6C1200206F
:10197000641200206812002010B50A46044619B10E
:10198000024B00211B68984710BD00BF94980408C3
:10199000F8B50D4E0D4C0E4D33680E4898476778DC
:1019A0002B680C48984733680B489847022F08D19A
:1019B0002478E31F5C425C412B6807489847204627
:1019C000F8BD0024F8E700BFECC201204C1800204D
:1019D000E8C201204C190020B01900200E4B034032
:1019E000B3F1607F06D1B1F5885F0CBF00206FF0C6
:1019F00086007047B3F1707F0BD101F4E043B3F57B
:101A0000005F06D111F4E06F14BF00206FF0860074
:101A100070476FF0860070470000C07F8A42F8B5BB
:101A200006460D4600F0CD806A4B22F4FF7121F08E
:101A30000101994210D0684922F0FF038B420BD07C
:101A400022F47F7020F00300A1F57061884203D07A
:101A500001F5A0618B4227D15E4B25F4FF7121F087
:101A60000101994210D05C4925F0FF038B420BD055
:101A700025F47F7020F00300A1F57061884203D047
:101A800001F5A0618B420FD115F0FF000BD0534B35
:101A900040F00070984240F0968082EA0500FF28EE
:101AA0008CBF00200120F8BD05F0FE43B3F1A06F0C
:101AB00011D102F0FE43B3F1A06F72D182EA0503A7
:101AC00033F47E136DD128046BD5C5F30540C2F302
:101AD00005429042E4E7B3F1407F62D102F0FE4359
:101AE000B3F1407F5DD182EA050030F47E1458D115
:101AF00031462846FFF772FF002864D1384912F4B6
:101B00007C1701EA020116D0B1F1607FC2F30543F0
:101B100036D1D1B241F0007101F17E410339102973
:101B200001D83048445C15F47C1F2FD19C4214BF6F
:101B300000200120B7E7B1F1607F0AD1D3B243F0B2
:101B4000007303F17E43033B102B40D82649CB5C46
:101B5000DFE7B1F1707F17D106F4E043B3F5005F22
:101B600033D10123C6F302218B4006F4E041B1F5E5
:101B7000005FD8D10120C6F3022600FA06F4D2E7AE
:101B8000B1F1707FCFD1F0E73B46CCE71FB9C5F389
:101B90000541A14215D0290403D5C5F3054098425B
:101BA0007EE725F47F03B3F1106F0CD102F0FE4302
:101BB000B3F1106F07D10D48104040F01060A842FB
:101BC000B5E701206FE700206DE73B46CDE73B46D8
:101BD0009FE700BF0002000600130006FF0000029E
:101BE0000000C07F98980408989804080000FFF649
:101BF000074B20F47E10984206D10739072934BFDD
:101C000000206FF0860070476FF08500704700BFBE
:101C10000001400500F0FE43B3F1A06F2AD1174B3D
:101C200020F4FF7222F001029A4210D0144A20F0F0
:101C3000FF0393420BD020F47F7121F00301A2F542
:101C40007062914203D002F5A06293420BD110F072
:101C5000FF0011D00B4B40F0007098420CBF6FF0AA
:101C600086000020704710F4004F14BF6FF086000C
:101C7000002070476FF08600704700BF000200062A
:101C800000130006FF00000237B505460C46FFF7BB
:101C90007FFE78B10023224601932946074801AB15
:101CA0002BF02EF820B9019BA34218BF6FF09300D0
:101CB00003B030BD6FF08800FAE700BF5018002075
:101CC00038B500F0FE43B3F1407F04460D4602D024
:101CD0006FF0860038BDFFF781FE0028F8D114F4BC
:101CE0007C1F18D0C4F30543032B137022D9224A5A
:101CF0002240B2F1607F31D1E4B244F0007404F1CB
:101D00007E44033C102CE3D81C4A125D9342DFD87A
:101D1000142BDFD90EE0184B2340B3F1607F0FD1B5
:101D2000E3B243F0007303F17E43033B102B04D96D
:101D3000002313706FF08500CCE71149CB5CD3E72B
:101D4000B3F1707FF4D101F4E043B3F5005FEFD15C
:101D50000123C1F302218B40DBB2C5E7B2F1707FF2
:101D6000B6D105F4E042B2F5005FB1D10122C5F36E
:101D70000225AA40CAE700BF0000C07F9898040867
:101D8000989804082DE9F843884617461C4600F049
:101D9000C7FD0546002844D1D8F80060B6F8009089
:101DA00009F4E043B3F5804FB36808BF27F001079B
:101DB00037EA03032DD1A4B3244B24F4FF7222F09D
:101DC00001029A4210D0224A24F0FF0393420BD022
:101DD00024F47F7121F00301A2F57062914203D0D7
:101DE00002F5A06293421FD114F0FF0304D0194AF8
:101DF00043F0007393421ED022464846F168FFF735
:101E00000DFE074668B9224648463169FFF706FECF
:101E1000D0B96FF0840500233046C8F8003000F0D8
:101E2000F7FD2846BDE8F88304F0FE43B3F1407F98
:101E300004D12304E0D56FF08605ECE7B3F1A06F81
:101E4000F7D0044B9C42D6E73D46EAE70002000685
:101E500000130006FF0000022DE9F04F9B4600230F
:101E600089B08DF81B30159B9246DDE91289002B55
:101E70000E460B460CBF4FF400624FF4806207A978
:101E8000149FFFF77FFF044610BB079D304629884B
:101E90000DF11B02FFF714FF0446C8B99DF81B00A3
:101EA000484531D8D5E908126B681B0A012B20D0B0
:101EB000184CA34200D053BBCDE903073346284654
:101EC000CDE901B8CDF800A02BF0ABFA044608B17B
:101ED000C7F800904A46214640463B6828F0CBFDB3
:101EE000079800F095FD002C18BF204609B0BDE80A
:101EF000F08FCDE9030733462846CDE901B8CDF888
:101F000000A02BF02FFAE1E76FF08904E0E76FF013
:101F10008604DDE70200800037B5044620B301A93E
:101F200000F0FEFC0446F8B91D4B1E481B6898479C
:101F30001D4D58B10024019829F01DFA2B68002886
:101F400018BF04461748984770B10AE00198037E0D
:101F5000032B11D129F00FFA2B680446114898473A
:101F600028B10CB96FF08F04204603B030BD002CAF
:101F700008BF6FF08704F7E7022B0BD1032303762A
:101F80000379FF2B09D0002BD4D0406929F01CFA2B
:101F90000446D0E76FF09604CDE76FF08404CAE7FB
:101FA000ECC20120141A0020E8C201202DE9F341FF
:101FB0000D46194600236F680B6038461646D5F863
:101FC000148029F0EDF9044688B9384629F0EAF979
:101FD000044660B9FFB277B9B8F1000F05D1AB681C
:101FE00023F47F4323F0030363B16FF0860420469C
:101FF00002B0BDE8F0810146686929F0ABF900281C
:10200000EDD1F2E74FF6F8736A889A4227D8154B5C
:1020100015481B682F79984710B16FF08F04E6E7D9
:1020200007B901A8314600F03BFC104B04461B6881
:102030000D48984710B1002CD9D1EEE7002CD6D12D
:102040000FCDD6F800C066460FC695E8030086E8B7
:102050000300002FCBD1019BCCF81430C7E76FF001
:102060008504C4E7ECC20120141A0020E8C2012054
:10207000154B70B51B68054614481646984718B1AD
:102080006FF08F04204670BD2B794BB96B6900242B
:1020900033602B7E012B14D034606FF0960407E080
:1020A0002846D5E9081229F0AAF904460028EDD0FF
:1020B000074B06481B6898470028E3D0002CE1D165
:1020C000DEE702232B76F3E7ECC20120141A00208E
:1020D000E8C2012010B5044660B1074B07481B68F1
:1020E0009847204628F05EFDBDE81040044B0348A9
:1020F0001B68184710BD00BFECC20120141A002055
:10210000E8C201202DE9F04F064600208BB00F46B3
:1021100014469946CDE9060009921860002A00F09D
:102120009880B2F1005F80F0978006AA314607AB35
:10213000FFF73CFF024628BB069B5A6A8AB1069D00
:10214000A8466A686B88120A012A089358F824AFD7
:102150002B6A6DD042498A425FD01AB36FF0860273
:1021600010E073681B0A15D0012B04D03C498B4248
:102170000FD00992F2E7304609A9099428F0F3FF3D
:10218000024638B1DDE906010592FFF7A3FF059A83
:102190003FE009940999069828F0A6FC0246002819
:1021A000CDD0EFE70DF1200B224639462846CDE988
:1021B000018BCDF800A005932BF0AFF810F1860F3E
:1021C0000246059B09D1224639462846CDE9018BB6
:1021D000CDF800A028F0ABFC02460698002AD1D129
:1021E0004288089B7ABB43804FF6F87293422DD801
:1021F000338813B102889A42B0D1738813B14288F0
:102200009A42ABD14A460799FFF732FF02460028AF
:10221000B8D110460BB0BDE8F08F08AACDE9018215
:10222000394622462846CDF800A02BF076F8D3E7B1
:1022300008AACDE90182394622462846CDF800A0F9
:102240002AF01CFFC8E79A42CED087E76FF08502DC
:1022500098E76FF08602DCE76FF08502D9E700BFF0
:10226000020080002DE9F043994600230C460168E6
:1022700085B005461746039300295BD100F1080895
:102280009822404634F061F9B9F1000F20463B46F0
:102290000CBF4FF400624FF4806203A9FFF772FD98
:1022A0000446002848D1039C384621882A1DFFF7A0
:1022B00007FD0646002844D16B7969F300036B7172
:1022C0006168D4E90823090AB9F1000F20D0012977
:1022D00015D01E48814200D0A9BB21464046009738
:1022E0002BF0D8F8044638BB04232B60039800F089
:1022F0008FFB002E18BF304605B0BDE8F0832146A5
:102300004046009706F0C6FE0446A8B90523ECE750
:10231000012909D00D48814200D0A1B9214640468B
:1023200000972BF0FFF8DDE72146404600972BF0A1
:102330003EF8E9E76FF08804284628F01CFD2646A1
:10234000D4E70446F8E76FF08604F5E70200800062
:102350002DE9F04F00249B4601F0FE438FB0B3F10E
:10236000806F0F46DDE918689246DDF868900994A1
:1023700040F085800B464FF4807209A9FFF702FDFB
:10238000054600287FD1099B1B8803F4E042B2F583
:10239000005F1CD113F4E06F19D03F4927F480721D
:1023A0008A420AD001F500718F4206D03B498F4224
:1023B00003D0A1F53F418A4209D10124C3F302238E
:1023C0009C40102C0ED900266FF0830534E042F2B9
:1023D0000402934202D1324B9F420DD0314B9F42B7
:1023E0000CD10D24A04550D321460AA8FFF74CFC80
:1023F000054620B100261FE00C24F3E700240998CD
:10240000D0E908126EB306EB040C4568A8EB040390
:102410002D0A012D27D0DFF890E0754500D07DBB57
:10242000CDE905390AAB0093CDE903BC3B46CDE9C4
:10243000014A2AF0F4FF0546099800F0E9FA074638
:102440003DBB38BB24B1224630460AA934F0B7F868
:10245000D9F800301C443846C9F800400FB0BDE838
:10246000F08FB446D1E7CDE905390AAB0093CDE949
:1024700003BC3B46CDE9014A2AF072FFDBE7264662
:102480006FF08605D8E72646D6E700266FF0890567
:10249000D2E72F460024DEE70010C00400FF40040E
:1024A000000180040013C004020080002DE9F04FF9
:1024B0001F4600238FB00446DDE91D8A0846CAF88E
:1024C00000300D469146FFF7A5FB002840F08980BB
:1024D00020462B464FF480720DA9FFF753FC0446AB
:1024E00000284DD139462846FFF782FB04460028D4
:1024F00043D10D9E7368D6E908B21B0A012B58D050
:1025000039498B4240D0002B68D11C9B5946069319
:102510001B9B304605931A9BCDE9078A0493199BB0
:10252000CDF800900393189B0B92CDE901732B46D5
:102530002AF073FF10F1860F04460B9A14D11C9BEE
:10254000594606931B9B304605931A9BCDE9078A93
:102550000493199BCDF800900393189BCDE9017368
:102560002B4628F0F7FD04463CB1B8F1000F04D02B
:10257000424600211C9833F0E8FF0D9800F048FA1D
:1025800020460FB0BDE8F08F1C9B594606931B9B5D
:10259000304605931A9BCDE9078A0493199BCDF821
:1025A00000900393189BCDE901732B462AF035FF69
:1025B000D9E71C9B594606931B9B304605931A9BF3
:1025C000CDE9078A0493199BCDF800900393189BDB
:1025D000CDE901732B462AF0C1FEC4E76FF08604F3
:1025E000C3E76FF08604CBE702008000002307B545
:1025F0001A460091024928F0AFFC03B05DF804FBD5
:10260000AC98040870B51B4E1B4C33681B489847A8
:102610002378580744BF03F0FB032370990705D5BF
:1026200000F024F9237823F002032370144D13489B
:102630002B68984733681348984763781BB1002389
:10264000114A63605360002308210F486370FFF74D
:1026500093F92B680B4898473368084898472378C4
:102660000648DA0744BF23F0010323702B68BDE856
:1026700070401847ECC201204C180020B01900200F
:10268000E8C201204C190020501800202DE9F0412B
:10269000FFF77EF918B100242046BDE8F081364FDF
:1026A00036483B689847044620B16FF08F04FFF727
:1026B000A9FFF1E7324D2B78D8070AD42AF015FB91
:1026C000044610B92AF01AFB04462B7843F00103A4
:1026D0002B702C4E29483368984710B1002CE4D059
:1026E000E5E7002CE3D13B682448984704460028DE
:1026F000DBD12B78990706D400F0B0F804462B788C
:1027000043F002032B7033681C4898470028E5D13A
:10271000002CCCD13B68194898470028C5D13368B4
:10272000164895F8008098470028BED13B681648A7
:1027300098470028B9D16B783BB918F0010F04D045
:10274000124B6C605C6002236B7033680E489847D4
:102750000028AAD13B68094898470028A5D12B78C2
:1027600006485A075CBF43F004032B703368984750
:10277000002890D099E700BFECC20120B0190020DA
:102780004C180020E8C201204C19002050180020ED
:1027900000F0FE42B2F1A06F08BF20F47E1000F0FE
:1027A000FC42B2F1806F04D0034A904204BF012280
:1027B0001A706FF0850070470002C003064B10B519
:1027C0001B6806489847064B044893F8F040054BB1
:1027D0001B689847204610BDECC20120B0190020AC
:1027E00058180020E8C2012000F14043052B70B5C5
:1027F00005460E460CD82822174C02FB0344237EC4
:10280000022B02D1636983421ED06FF08B0021E05E
:10281000012128F09FFD70B10F4B00221C46197E4C
:10282000022902D15969A9420BD00132062A03F1CB
:102830002803F4D1E9E76FF087000BE06FF0960012
:1028400008E0282303FB0244204628F076FD0028F8
:10285000F4D1346070BD00BF581800200122024B33
:10286000002083F8F0207047581800202DE9F0412F
:102870000A4C002526464FF0010803272046C4F8DD
:102880001C802776013528F08DF9062D04F12804E7
:10289000F4D1002386F8F030BDE8F081581800200C
:1028A000F8B506460F46FFF789FF88B300241B4B97
:1028B00022461D46197ED1B13CB9022905D1D969FC
:1028C00019B91979002918BF1C460132062A03F1EB
:1028D0002803EFD114B96FF08C0006E0204628F0F1
:1028E0002CFD204628F05EF910B100240EE01C46B5
:1028F000237E83B9012323763EB1651BED1003F1DE
:10290000CC335D4305F18045356000203C60F8BD67
:102910006FF08800E9E76FF09600E6E758180020AE
:1029200000232DE9F3410B6007460D46FFF746FFF4
:10293000002864D0334B34481B689847064628B1BA
:102940006FF08F04204602B0BDE8F081294638467A
:10295000FFF74AFF10F18C0F0446DFF8B08008D073
:10296000D8F80030284898470028EBD0002CE9D14F
:10297000E6E729463046FFF793FF044620B1D8F832
:10298000003021489847DDE701232E68CDE900009B
:10299000694630467761736001AA28F082FD0446DB
:1029A00028B9DDE90012304628F0B1F80446DDE927
:1029B000000128F074FD28684CB128F0F3F814F1F8
:1029C0008C0F08BF6FF0870400232B60C8E7836873
:1029D000D90444BF43F4806383609A0444BF43F442
:1029E00000638360037E012B04BF0223037628F07B
:1029F000A4FC04460028B3D06FF09604E4E76FF01F
:102A000088049FE7ECC20120141A0020E8C20120CC
:102A10000B4B10B51B6804460A48984718B16FF075
:102A20008F04204610BD204628F0A5FC064B044626
:102A30001B68044898470028F3D0002CF1D1EEE73A
:102A4000ECC20120141A0020E8C20120144B37B553
:102A50001B68044613489847E0B9204601A9FFF7D0
:102A6000C3FE114D044628B12B680E4898472046F6
:102A700003B030BD019803797BB1C369012B0CD140
:102A800028F090F804462B68064898470028EED0B6
:102A9000002CECD16FF08F04E9E728F06CFCF1E733
:102AA000ECC20120141A0020E8C2012030B40D4D00
:102AB0002C681C606C685C6000249C605468DC605E
:102AC00014881C8254885C8294685C61D4689C6120
:102AD000126930BCDA6119620A46014603F124002A
:102AE00033F06DBDB09804082DE9F843232904465E
:102AF0000F4691469846089E04D86FF098052846E0
:102B0000BDE8F8830822194933F0F6FC0546002891
:102B1000F3D1A368002BF0D1216A243F8F42C8F87B
:102B20000010EAD3B1F5005FE7D271B9C9F800002F
:102B3000E3687360238A3380638A73806369B36058
:102B4000A369F360E3693361D9E701202BF05DF9F4
:102B5000C9F8000030B1D8F8002004F1240133F0A6
:102B60002EFDE5E76FF08C05C9E700BFB0980408BB
:102B700070B5094D044628600848016008490948B5
:102B80000A60094A1360A0472B68084898472B68D9
:102B90000748BDE870401847F4C20120F0C2012088
:102BA000ECC20120141A0020E8C20120B019002054
:102BB0004C19002008B506F0A1FF014B186008BDB4
:102BC000781A0020024B034918682AF01DBD00BF87
:102BD000781A00207D65040870B50C4C0C49064637
:102BE00020682AF011FD06F089FF0546206806F0EE
:102BF0005BFF3046FFF7E6FF284606F055FF2068EA
:102C00000449BDE870402AF0FFBC00BF781A0020DC
:102C10007F6504088165040807B5082028F079FD60
:102C20000222064B6846CDE9002328F092FC0820DA
:102C300003B05DF804EB28F077BD00BF006A181000
:102C400040B1054A1378012B04D8037001330020EA
:102C5000137070470120704781BB01200348044A6C
:102C60000449121A921028F0DFBC00BFC00100080E
:102C70006005000840BF012008B5154B83F30A88A2
:102C800000F030F8FFF7EAFF124B13498B4212D3E2
:102C90000020124B12498B4218D3FEF791FA1868A4
:102CA00050F82240586840F8224001329868824229
:102CB000F5D30C33EAE70022F8E71C6844F8220059
:102CC00001325C68A242F8D30833E4E70022F8E757
:102CD00000000020748C0508808C0508808C050895
:102CE000808C05084FF48041144B154A70B59A60EA
:102CF000D3F88820134D42F47002C3F88820124A9A
:102D000005F5005491664FF0FF3222666FF40032F1
:102D100062660D22A2660222C3F8D020BFF34F8F55
:102D2000BFF36F8F4FF44036002006F0AFFE002057
:102D3000E66006F08FFE2E6170BD00BF00ED00E082
:102D4000000000080080004400900050014B186013
:102D5000704700BFFCC20120054B1860054B1B6F7C
:102D600003F00703032B01D140F0D6BB704700BF2F
:102D700004C301200080005030B5056887B0AB88DF
:102D800004461848ADF80C3043F072F900220121D6
:102D900003A828F0D5FC0DF10B0103A828F0E4FCF2
:102DA0009DF80B3083F001032B70AB79022B15D10A
:102DB0004FF0FF330022CDE9043304A90A4B0094FD
:102DC00003A800F05BF9049B009401330CBF0422BC
:102DD0000122054B05A903A800F0EAF8002007B07E
:102DE00030BD00BFD499040857B60208002307B5C8
:102DF0002948019343F03CF94FF440730122042128
:102E00006846ADF8003028F09BFC0122234B0520DA
:102E1000C3F8442401A943F026F9002839D1204BF6
:102E2000D3F8F02042F00102C3F8F020D3F8FC20E0
:102E300042F08072C3F8FC201A4AA3F55D431A6081
:102E4000019B194A03F5D52303F2FC43B3FBF2F3CC
:102E5000164A013B13610223C2F8F0304FF480732D
:102E6000C2F804334FF06043114AC3F8B02F114A3F
:102E7000C3F8802ED3F8002E42F48072C3F8002EDF
:102E8000FF2283F82020D3F8002E22F48072C3F8AA
:102E9000002E03B05DF804FBD499040800D0035061
:102EA00000ED00E0FF030040F8590D00000004E0D1
:102EB00055CEACC5090001004FF06043D3F8802E19
:102EC00030B5D20715D501240B4D8440D5F8FC2030
:102ED00042F08072C5F8FC20D3F8002E2243C3F8DC
:102EE000002E53F82020002AF0D003F820100020F4
:102EF00030BD1120FCE700BF00ED00E070B50446D6
:102F000001260C4D04B970BD94FAA4F0B0FA80F01B
:102F100006FA00F224EA0204C200AA580F2805EBC0
:102F2000C001C8BF1038002AECD04968C0B2904731
:102F3000E8E700BF7C1A002008B50C4843F098F879
:102F4000272006F095FD28B1272006F09FFD2720B9
:102F500006F080FD282006F08BFD28B1282006F021
:102F600095FD282006F076FD002008BDD4990408C0
:102F700048B10122437801789A4030235943034BEA
:102F800000205A5070472220704700BF40D00350A5
:102F900048B10122437801789A4030235943034BCA
:102FA00000205A5070472220704700BF40E0035075
:102FB0002DE9F0410D4690461F460446002836D0C4
:102FC000002934D042F075FE23780646FF2B05D049
:102FD00042462046296803F041FF28602868421CC9
:102FE0000BD12378FF2B1CD1124B6078D3F824141B
:102FF00029F057FA431C286013D00F49069B41F86B
:10300000307001EBC0014B602378FF2B04D001230B
:103010000A4A8340C2F82434304642F045FE00207C
:1030200003E0304642F040FE2D20BDE8F081222032
:10303000FBE700BF00C003507C1A002000D0035003
:103040000F2838B5054613D842F033FE012300247B
:10305000084AAB40C2F82034C2F82434064B43F887
:10306000354003EBC5035C6042F01EFE204638BDD0
:103070002120FCE700E003507C1A00202DE9F041FC
:103080000D4690461F46044650B349B342F011FE28
:1030900023780646FF2B05D042462046296803F0D8
:1030A00063FF28602A68531C14D00E49069B103217
:1030B00041F8327001EBC2014B602378FF2B04D042
:1030C00001239340084AC2F82434304642F0ECFD14
:1030D000002003E0304642F0E7FD2D20BDE8F081FE
:1030E0002220FBE77C1A002000D0035008B503F033
:1030F0005BFE054B00F0553020F0A040C3F82004E3
:10310000BDE80840FFF7FABE00E0035008B503F041
:103110004BFE054B00F0AA3020F02040C3F82004FD
:10312000BDE80840FFF7EABE00E0035038B50C4B9D
:103130000D461C680123E26A8340134203D0014616
:10314000204642F0CFFD0123E26AAB40134205D096
:1031500029462046BDE8384042F0C4BD38BD00BF16
:10316000D899040838B5036805461C68B4F1B64F11
:1031700022D0154B9C4221D003F580439C421FD0A6
:1031800003F580439C4216D12C2006F051FC2046CA
:1031900029F0F6F90D4A04F50053DA632B798BB95F
:1031A00095F87A30002B14BF4FF4FC634FF4F863AA
:1031B00004F58054236438BD2920E6E72A20E4E79B
:1031C0002B20E2E7024BF3E700000B50FFFF1F004C
:1031D000E40601002DE9F74F9A460368C7881D6889
:1031E00002237E007F2F80F878300446B3B28846F1
:1031F00091464FF0000B06F0FE061AD91B0A03F0A9
:103200000603B34643F0F00628F0C8FA00900D9B81
:10321000B3B128F0C3FA009BC01A0D9B98420FD39C
:103220002023EB600B23072084F8793003B0BDE83E
:10323000F08F90F87A30012B08BF46F00106E3E7E3
:103240002B6CEA6B134013F4C06016D0694905F586
:103250000052D16320229905EA6048BF04234FF051
:10326000000256BF052331202F2084F878204CBF60
:1032700084F8793084F87930D8E794F87820023AE5
:103280000B2A00F2AD80DFE802F0061133ABAB3D54
:1032900047AB4E657A99284629F062F931462846AF
:1032A00029F04CF90323A4F87830B0E75A0613D577
:1032B000402205F500537F2FDA6307D95946284687
:1032C00029F03CF9042384F87830A0E794F87A30A8
:1032D000012B45D10C23F6E7180698D5802205F579
:1032E0000053DA63284629F043F940F20D23DAE768
:1032F0005906F1D5402205F50053DA6394F87A3087
:10330000012B2DD1284629F02BF9284646F0010142
:1033100029F014F90823D6E75A06DDD5402205F531
:103320000053DA63D6E7236F4B4508D25A1C226755
:1033300018F80310284629F001F90B23C3E794F885
:103340007A30022B01D10723BDE7284629F010F976
:103350000D23B8E7580605D5402205F50053DA637A
:103360000A23B0E719067FF552AF802205F5005316
:10337000DA63284629F0FCF840F20D3393E79A0609
:103380007FF545AF202205F50053DA63636F0C9A91
:10339000934208D25A1C28466267019329F0D0F85C
:1033A000019B0AF80300636F0C9A2846934202D1EE
:1033B00028F0FBF9CAE728F0FEF928E7DB057FF5DE
:1033C00026AF4FF4807305F50055EB6394F8793020
:1033D000022B0BD0032B0BD0012384F8793025E787
:1033E0004FF400630120A4F878301FE72D201DE77B
:1033F00006201BE7FFFF1F0073B50546002843D0DA
:1034000003681C68B4F1B64F08D0224A24F4804106
:10341000914203D002F50042944237D1187901A9B4
:1034200042F021FE0646002832D1204603F0E0FD9E
:10343000194A04F50053DA631A642046297929F001
:1034400085F82B794BB96A791449154B20469B5C5A
:1034500051F82220019903F0AFFD012304F58052B9
:10346000B4F1B64F53600DD00A4A944204D00D4BCC
:103470009C4214BF032302230B4A42F823503046D8
:1034800002B070BD0023F7E72226F8E70F26F6E723
:103490000126F4E700000B50FFFF1F00BC98040852
:1034A000B898040800400B507C1B00202DE9F84F11
:1034B0000C460546002800F0A880002900F0A580F1
:1034C0000B681B68B3F1B64F21D0534A934220D00A
:1034D00002F5804293421ED002F58042934240F0B2
:1034E000968003262379012B00F293806379022BC7
:1034F00000F28F8042F0DDFB484B074653F8263040
:103500005BB142F0D1FB12242046BDE8F88F0026C3
:10351000E8E70126E6E70226E4E7A04658F8063B7E
:10352000986842F0A5FD3E4842F0A2FD01220A2122
:10353000404603F053FC01220A2104F1080003F085
:103540004DFC23795BB30323364A02EB0611C1F825
:103550002835E079A379533643EA0043C1F82C3586
:10356000617A237A360143EA0143935123682E4856
:103570002B6023792B7163796B71E3882B8123890D
:103580006B8142F075FD002005F10C0106F040F85A
:10359000064640B3384642F087FB1924B4E74FF0A3
:1035A0000A0A4FF00109DFF87C804FF0300BA37955
:1035B000E2790BFB038309FA02F203F501531A6067
:1035C000642007F04DFCA379E2790BFB038309FA31
:1035D00002F203F5825364201A6007F041FCBAF14D
:1035E000010AE2D1AFE705F10D0106F011F804463A
:1035F00020B13046297B06F031F8CBE72846FFF7AB
:10360000FBFE384642F050FB7EE722247CE70F2485
:103610007AE7212478E700BF00000B507C1B0020D4
:10362000D499040800C00350BC990408F8B5036895
:1036300004461D682E6CEB6B1E40770633D5402286
:1036400005F50053DA6390F87830042B13D0082B7B
:1036500025D0032B0CD1C3887E2B0AD8002380F8F9
:10366000793090F87A30012B02D00B2384F878302F
:10367000F8BD0423FAE790F87A30012B03D00B232E
:10368000A0F87830F4E7284628F06AFF94F87B1019
:10369000284641F0010128F051FF0823E6E7002306
:1036A00084F87930E4E7300710D5082205F5005397
:1036B000DA6328461A6428F053FF94F87B102846F2
:1036C000BDE8F84041F0010128F038BF16F080074E
:1036D0001BD0802205F50053DA6394F87830082B6C
:1036E00003D006D8033B012B05D80A2384F8793090
:1036F00001E00B2B07D00E2384F878302846BDE874
:10370000F84028F035BF0323F0E7F1050FD5134A41
:1037100005F50053DA631A64617B207BFFF706FD31
:10372000AF6094F87930002BA2D10123B8E716F4EA
:10373000C06F9DD0094A05F50053DA631A64617BB6
:10374000207BFFF7F3FC2023B205EB6001D50423B7
:10375000A6E773058CD50523A2E700BFFFFF1F0076
:10376000F8B5036804461D682E6CEB6B1E4016F01E
:1037700004012AD02846444A28F01DF805F50053D4
:10378000DA6305F580505C32026494F87820052AEB
:1037900002D0092A13D0F8BDE3887E2B09D8002374
:1037A00084F8793094F87A30012BF4D104238360C3
:1037B000F1E720230364062384F87830EBE7042242
:1037C0001A64002384F87930E5E7B0062BD520226F
:1037D00005F50053DA631A6494F87830062B1AD191
:1037E000E38894F87C205B00DBB2934228460ED13C
:1037F00027F0E1FF94F87A30012B06D1042305F578
:103800008055AB6084F87910C5E70923D4E727F029
:10381000CCFF0A23D6E7284628F0B2FE2846BDE8AA
:10382000F84027F0C2BF16F0800704D0802305F5CA
:1038300000552B64AFE7F1030FD5144A05F500538B
:103840001A64DA63617B207BFFF770FCAF6094F849
:103850007930002B9FD10123B4E716F4C06F9AD0C2
:103860000A4A05F500531A64DA63617B207BFFF78F
:103870005DFC2023B205EB6001D50423A2E77305AC
:1038800089D505239EE700BF24000100FFFF1F002C
:1038900010B5154B53F820402379204673B9FFF734
:1038A000C5FE94F8791001290BD1D4F88030CBB142
:1038B0002046D4F88810BDE810401847FFF750FFA5
:1038C000EFE779B194F878300E2B0BD10F2384F801
:1038D0007830D4F884302BB12046D4F88820BDE865
:1038E0001040184710BD00BF7C1B00202DE9F74F8A
:1038F0000C46174698468146002800F0D780002ADB
:1039000000F0D4800C9B002B00F0D0800579002DB6
:1039100040F0CF80B8F1000F00F0CE800D9B002B5F
:1039200000F0CA807F2900F2C78042F0C2F9A9F8EE
:1039300006400190C9E91C55484689F87A50FFF7BE
:1039400011FCD9F80020B9F806601468022289F841
:10395000782027F023FF82467600F6B20E9BA3B1B3
:1039600027F01CFF0E9BA0EB0A0083420DD82022FB
:10397000E2600B224FF0070B89F87920019842F0A2
:1039800093F9584603B0BDE8F08F216CE26B11400B
:1039900011F4C06B16D04A4804F50052D0632022BF
:1039A000E2600022890589F878204BBF04220522B5
:1039B0004FF0310B4FF02F0B4CBF89F8792089F86D
:1039C0007920DBE799F8780002380B2861D8DFE826
:1039D00000F006116060606060602540604E204627
:1039E00028F0BEFD3146204628F0A8FD0322A9F8A4
:1039F0007820B3E74A0605D5402104F50052D1638B
:103A00000A2217E00B06A9D5802104F50052D163E4
:103A1000204628F0ADFD40F20D22E8E7D9F87020ED
:103A200042450AD2511CC9F87010B95C204628F0F2
:103A300085FD0B2289F8782090E72DB9DDE90C7817
:103A4000C9F87050012589E7204628F091FD0D2224
:103A5000F0E74806D0D40A0680D5802104F500524C
:103A6000D163204628F084FD40F20D32BFE7CB053C
:103A70007FF574AF4FF4807104F50054E16399F859
:103A8000791002290CD003290DD0012189F8791071
:103A900074E74FF400624FF0010BA9F878206DE74E
:103AA0004FF02D0B6AE74FF0060B67E74FF0220B44
:103AB00067E74FF0240B64E74FF0210B61E700BF8D
:103AC000FFFF1F001FB503680246B3F1B64F26D0B3
:103AD00017498B4226D001F580418B4225D001F554
:103AE00080418B4219D1134B134801930023D168B5
:103AF000124C8DF80830A14204D9114B99428CBF69
:103B0000022301238DF80930938801A9ADF80A300A
:103B1000D388ADF80C30FFF7C9FC04B010BD094BD9
:103B20000948E2E7094B0A48DFE70A4B0A48DCE7A5
:103B300000000B50FC990408301D0020A0860100F5
:103B4000801A0600389A04088C1B0020249A040866
:103B5000181C0020109A0408A41C002030B50A4646
:103B600085B000B119B96FF0030005B030BDB0F1F8
:103B7000B64F2BD03D4B98422AD003F58043984254
:103B800028D003F580439842EDD103238C214B4389
:103B900037495818CB58002BE5D053881188013B82
:103BA0004908072BDFD801A454F823F0D93B0008BB
:103BB000FF3B0008673B0008133C0008673B000818
:103BC000673B0008673B0008333C00080023DDE743
:103BD0000123DBE70223D9E71389002BC3D0254C4F
:103BE000C9B20094526827F0ECFD2D2838D030D8A7
:103BF000062835D0072836D00028B6D0B3E7138979
:103C0000002BB0D01B4CC9B20094526827F009FEBB
:103C1000EBE71389002BA6D0148A002CA3D0154DF6
:103C2000C9B2CDE90145D4680094526827F02DFE51
:103C3000DBE71389002B96D0148A002C93D00D4D0E
:103C4000C9B2CDE90145D46800945268FFF74EFE31
:103C5000CBE72F2807D0312885D16FF0020084E709
:103C60004FF0FF3081E76FF001007EE700000B505E
:103C70008C1B0020E09304001FB5FF230F28ADF834
:103C80000830039009DC00910022094B03A902A827
:103C9000FFF78EF905B05DF804FB10380390009132
:103CA0000022034B03A902A8FFF7E8F9F2E700BFDF
:103CB00015B902082DE9F04F144606460F4689B0A3
:103CC0000393C36B01225B6904A960689847F36B97
:103CD00001225B6905A93846984704A828F078FABC
:103CE000054650B10023A37563754FF0FF33A36001
:103CF0000025284609B0BDE8F08F05A828F075FA20
:103D00000123A375237E04EBC303DF611D84636875
:103D1000BB420ED1206005A828F088FA4FF0FF338F
:103D20002075A360237D043B022B26D80023A375B6
:103D3000DEE723681A1A53425341A37505A828F0F9
:103D400075FA237D834218BFA57505A828F051FA9E
:103D5000804604A828F04DFA804518BF002305A826
:103D600018BFA37528F04CFA804604A828F048FA3A
:103D700080451CBF0023A375D4E705A828F039FAB5
:103D800080B1F36B022238465B6906A9984706A802
:103D900028F03DFA0346207D032839D8DFE800F0FB
:103DA0003838040905A8F3E7CC22237E04EBC303CB
:103DB0001A8401F0ADFA129B187005A894F81880C7
:103DC00028F00BFA04EBC80888F82200237E05A827
:103DD00004EBC303B3F820A093F8228028F009FA7B
:103DE000814605A828F00CFA8346B9F1000F14D0DB
:103DF000F36B022238465B6906A9984706A828F0AB
:103E0000CCF9607568B90023A3754FF000093CE058
:103E1000227E04EBC2021384CBE705A828F0A8F9A0
:103E2000EFE794F81690B9F1000FEED0BAF1000F59
:103E30000DD1B8F1000F1DD00123E375637E002B77
:103E40003FD1B8F1010F30D184F8198014E0736CC0
:103E500007EB0B015A4287EA010010421CBF002207
:103E6000A2755A1E0A409B1A9A45CCD8A37D002BF6
:103E7000DFD1CAE7E37D43B94FF0000953465A4604
:103E80003946304627F0EBFEA060A37D13B12269CE
:103E9000524422611F49227E097891421AD9013287
:103EA0002276039ACAB91D4623E796F834307BB9C7
:103EB000F36A0133E2D1B8F1030FDFD10123A37616
:103EC000DAE7B8F1010FE0D0B8F1030FD4D1F5E78C
:103ED0009946D3E70023A3750BE7002B3FF409AF06
:103EE000E57D002DDFD0B9F1000F11D1B8F1030F3E
:103EF0003FF4FFAEA1684B1C3FF4FBAE129B224681
:103F0000009330460123FFF7D5FE0546A075F0E685
:103F10004D46EEE6E89804082DE9F04F0E46984627
:103F200000238BB004464FF0FF31104617468DF842
:103F3000133001F0D7F9B6F5801F20D2314605AA1B
:103F400004F1080028F092F8451C014603D1237CB7
:103F5000BBB92D2010E0384601F0C4F901223946E2
:103F600020460DF1130327F0CCFE0028EFD09DF87A
:103F7000133088F8003000200BB0BDE8F08FB01C83
:103F8000E5D1E56A691C36D12046616A27F0ADFDAE
:103F90000546B31C18BF0123DFF8CC900193636A78
:103FA000626C0293236805A902FB053AE36B0522C4
:103FB0005B695046984705A828F0A4F928F0C7F98E
:103FC000504628F0CFF94FF0000B824601464B1CBB
:103FD00005D0636C81EA0A025B42134211D0294684
:103FE000204627F082FD029BAB422CD0BBF1000F94
:103FF0002CD10546D3E72368ED1A636CB5FBF3F5C6
:10400000C7E7484601F06EF90DF113034946204613
:10401000019A27F076FE034690B1B21C03D0D9F87E
:104020000020B2420CD19DF8132003930D4B88F869
:10403000002049461A68384632F0C1FA039B9B4675
:10404000D9F80810C3E7BBF1000F82D0B6F5801F86
:1040500091D2314698F800307A6804F1080001F0F6
:104060006FF888E7E4980408302400202DE9F34134
:104070000446174698460E46184D816AE36A8B42FD
:1040800001D04B1C02D102B0BDE8F081284601F0FE
:1040900029F90122294620460DF1070327F031FEB8
:1040A00038B14346294620469DF80720B8470028E6
:1040B000E9D0A9684A1C04D16968204627F0A2FD0E
:1040C0000146012EDAD16B6881EA0302636C5B4220
:1040D0001A4218BF4FF0FF31D0E700BF0424002080
:1040E0002DE9F0474FF0FF334FF6FF7200250446ED
:1040F00000F108078AB0C0E90923C36205620563BD
:104100003846884627F083FF204627F06EFC60BBC8
:104110002046414627F039FD204627F066FC60BB6B
:104120005E200AB0BDE8F0872368E26B606C5669D8
:1041300000FB0530052205A9B04705A828F0E2F8E4
:10414000012806460CD12946204627F0EFFC012E17
:10415000024600D101322946204627F065FC03E0E3
:1041600028F0FAF80028EED10135E3699D42DBD34F
:10417000204627F03AFC0028CAD0204627F065FCEC
:104180004FF6FF72636A934200F0A680E26B666CA2
:104190002068694606FB030055690522A847684662
:1041A00028F087F8626A2368606C4C4D00FB02308F
:1041B00028F0D8F84FF0FF33A062E3622A466FF090
:1041C0000101204605ABFFF7A7FE002846D1AD68E8
:1041D00029462046E56227F0E4FB206320B920460B
:1041E000E16A27F00FFDE0622946204627F00AFD2C
:1041F0000546A36A9D4233D1204627F090FB002656
:104200008046B146E36999453CD3B04559D920462B
:10421000616A27F06AFC0027054604F1400AB742AC
:1042200012D3626C2368694602FB0539E36B0522F1
:104230005B6948469847684628F03BF85346024673
:104240004946E06B28F090F82946204627F04DFCBF
:104250000137B8450546E2D1642062E7A56AB7E7B1
:104260002946204627F09DFB236B2946034406463A
:104270002363204627F0C6FC0546002EB9D1C4E9C9
:104280000B06B6E7636C2568052203FB0955E36B53
:1042900005A95B692846984705A828F033F828F057
:1042A00056F858B1284628F05DF80146204627F018
:1042B00078FB636C143B984208BF013609F1010991
:1042C000A0E7384627F0A3FE002320461946044AFB
:1042D000FFF7CCFE002024E7672022E75C240020C3
:1042E000F1BC02082DE9F041036B9046826B90B05F
:1042F0009A4288BF8363426C436A07680E4602FB9A
:104300000377C36B01A905225B69044638469847C9
:1043100001A827F0F7FF01280146307057D0656CDF
:10432000E26B2368606AD2F814C005FB00300522F6
:1043300006A9E04706A827F0E5FF01284FF0000591
:1043400023D0D4E90A3201219342CDE90B458DF8FF
:1043500034800E958DF83C102AD11946204627F05E
:1043600051FC236B626C14339B1AE06223630C9B39
:1043700053B99DF83C303BB1626A616C2368E06BD5
:1043800001FB023127F076FF0C9DE36B05225B6990
:1043900001A93846984701A827F0B4FF3070284695
:1043A000236BA26B9A4288BFA36310B0BDE8F08173
:1043B000237C33B91C490BAA04F1080000F00EFF5E
:1043C000D5E72046194A0BABFFF750FECFE7237C19
:1043D00023BB2246164904F1080000F0FFFE616A83
:1043E000204627F0A3FB616A421C204627F01CFBF5
:1043F000054620B9236B626C1344143B23632046AB
:10440000A16A27F0FFFB2368A062C01A636CB0FBAF
:10441000F3F06062204627F038FCB6E70023204620
:10442000044AFFF723FEDAE7594B0008D54A000893
:104430008BBD020827BD020873B50D46D11E4A4246
:104440001C461B7E4A419A4226D12968236899421C
:1044500022D3636899421FD8114E0DF107033246EB
:10446000FFF75AFDC0B972686B689A4214D19DF883
:104470000730DA1E53425341227E93420CD16369C6
:1044800001336361D4E90323934205D22968A2680A
:1044900042F8231001332361012002B070BD00BF38
:1044A0005C2400202DE9F04F9A468BB09DF85030E7
:1044B000DFF850B10293DBF81030804653450D46CB
:1044C0001646C0F09880D146DBF804300193B9F16C
:1044D000000F00F08C80D8F83C3001225B6907A9FE
:1044E0000198984707A827F080FEDBF80030984233
:1044F00040F0848007A827F083FE0428074614D1E3
:1045000007A827F084FE019B029A04463B44002A38
:104510003ED1864212D91446361A4046019927F0F8
:1045200071FBA9EB04090190D1E7D8F83C300222D5
:104530005B69019808A9984708A8E2E7841B5445DD
:1045400028BF5446032C03EB0607AAEB040A1DD927
:10455000D8F83C30294638465B69A208984724F0D1
:10456000030304F003061F441D44002ED5D0D8F8E1
:104570003C3001225B6908A93846984732462846F4
:1045800008A9354432F01BF80026C6E72646ECE7BA
:10459000074600F00302039203442A18049205938D
:1045A000049BDD1B059BD81B039B9F420FD1002F53
:1045B000B3D0D8F83C30012208A95B6998473A4645
:1045C000284608A931F098FF78B93D44A5E7D8F806
:1045D0003C30012208A95B6998470422284608A9B3
:1045E00031F08AFF08B9043FDAE74FF03609484650
:1045F0000BB0BDE8F08F4FF06309F8E74FF06F099B
:10460000F5E700BF882400202DE9F0410F4616464B
:104610009846044688B060B390F83450FDB101214B
:1046200027F0D8F900210E9BCDE90511CDE902371D
:104630009DF83C30CDF804808DF81C30237C049626
:104640008BB90D4901AA04F1080000F0C7FDDDE9AE
:104650000553E06B002E08BF1D4627F0A4FB28463B
:1046600008B0BDE8F0812046044A01ABFFF7FEFC2C
:10467000EDE70546F3E700BF55BD020839440008E1
:104680002DE9F04F99B0CDE90B230E460A69416C34
:10469000D31D1439B3FBF1F3013302EBC302036BF7
:1046A00004469342C0F00F820023DFF82094099360
:1046B000E36A48461946079300F014FED6E903372B
:1046C00005930C9B022B1CD1CC2F40F074810B9BCB
:1046D0008BB13146204627F0C4FB656C14900B9BD0
:1046E00063B1E36B01225B69706816A9984716A84D
:1046F00027F07FFD0CE0059B1B68149308230E93A5
:104700000DE0782F656CEAD80B9B002BE9D1F07D8A
:1047100000280CBF04230823782F0E9328D90123E7
:104720000025089308230393336808990C98C9F867
:104730000030C9F8107027F07DFD00230F930D9312
:1047400006930A93039BDDF81CA09B0889F81400CC
:104750001193616C03984A1E0AEA02028B1AEFB1A8
:104760000544AB421CD8236B5B1A1344236386E0D9
:10477000079A6B1E1340EB1A3A1D934207D257B1AA
:10478000082BCCD80023042508930395CCE70025FB
:1047900004230895C7E704250897F6E78342E2D388
:1047A000039AB8469B1A9F4228BF984652449F429C
:1047B000049278D90123D9F8102089F8173097424C
:1047C00076D1C9F804A0069399F81730002B71D060
:1047D00099F818200699D31C09EBC3030132C3F8DA
:1047E00004A0A3F80880997289F81820B8F1000F86
:1047F00014D00C9B022B60D10F9B7BB90D9B4344C3
:10480000032B0BD9E36B01229B69049814A99847E9
:104810000546002840F0D58001230F93069B16A87B
:104820000193089B009399F814204346316800F0E7
:104830000FFDE36B50469B69119A16A99847051E18
:10484000099B18BF5346039A099351464346204695
:1048500027F005FA236B039AC9F808009B1A08F1A0
:10486000030222F003029B1A2363002D40F0A9806B
:104870000D9BDDF810A04344A7EB08070D935146AC
:10488000204627F0BFF900258246002F7FF461AF54
:104890008E4A3168936804F10800E36252680C9B09
:1048A00000F04EFC89E0069B002B18BF03238AE72B
:1048B000022388E7C9F804A098E70B9B002B30D1AE
:1048C000059BB8F1030F03EB080B27D9DDE90401C1
:1048D000E36B4FEA98029B6998470546002864D12C
:1048E00018F003025ED0059B28F003052B440593C6
:1048F000049B1D444FF0FF33059915A8159331F023
:104900005EFEE36B284601229B6915A99847054680
:10491000CDF814B0002D81D0049B94E74246049D4D
:10492000E8E706F12003DDF810B01093F37D70681E
:104930009BB10023357E0A9AD9B2A94211D21099AF
:1049400003F1010C31F83310914225D90E9906EB91
:10495000C303D8690A44104403E00E9B0A9A134427
:104960001844E36B01225B6915A99847159B012246
:1049700013930A9B584604330A93E36B13A99B696C
:104980009847049B05464344A3EB0B03042B06D92D
:1049900070B90BF1040BC9E76346521ACCE7CDF8A6
:1049A00010B0B7E7CDF814B038E7CDF814B0B3E7DE
:1049B000CDF810B0B0E770252F46384619B0BDE8E5
:1049C000F08F3D2DF8D104F1080303932368079A73
:1049D000606CD71AB7FBF0F700FB073027F0C2FC7A
:1049E000E16A8246204627F00DF9A16AD4F830E04A
:1049F0008142626C59D0D9F8083002F1FF3CAEEB2D
:104A0000020103EA0C030B44236309992368E06263
:104A1000CB1AB3FBF2F847453BD1079BB3EB0A0730
:104A200011D0E36BBA0851469B6998478346E36A05
:104A3000079A3B44E362236B03989B1A5344236316
:104A400027F0E5FA5F462368616CE06B01FB0831F3
:104A500027F0FDFB204626F0C8FF204626F0F5FF94
:104A6000626A2368606C00FB023027F07BFCA06266
:104A7000204627F00AF920636FB13269616CD31DBB
:104A80001439B3FBF1F3013302EBC30290429DD220
:104A900092E70027D7E704F1080027F0B8FA3B4671
:104AA000394620460A4AFFF7E1FA3269616CD31DA4
:104AB0001439B3FBF1F3013302EBC302236B9342CE
:104AC000BFF4F6AD78E71C2777E700BF302400205D
:104AD000F1BC0208032A2DE9F34106460D461746AC
:104AE0001C4606D1237A012B23D0012002B0BDE859
:104AF000F081DFF86080096842460DF10703FFF797
:104B00000BFA60600028EDD19DF80730032BE9D047
:104B1000D8F804206B689A42E4D1237A2969012BE2
:104B2000D4F80CC007D172690CEB0103934202D98F
:104B30002074207CDAE708316144E1603B460122C1
:104B400029463046FFF79CFD60600028CAD000204F
:104B5000CCE700BF5C2400202DE9F341032A17466F
:104B6000089C06D1237A012B25D0012002B0BDE894
:104B7000F0812668DFF89080304642460DF1070349
:104B8000FFF7CAF960600028ECD12568D8F8040066
:104B9000A96A6A6C4840534210EA030CE2D1237AB6
:104BA000012B0AD1E068D8F81030034470698342C1
:104BB00003D984F810C0207CD8E72868EB6A1B1A58
:104BC000081AB3FBF2F3B0FBF2F083420BD1706C26
:104BD000F36A421E1340326B121A134428463363A1
:104BE00027F010F8E862D8F81020E3680832134480
:104BF000E36001223B4604492068FFF741FD606005
:104C00000028AFD00020B1E75C2400202DE9F0415E
:104C10000025604B0E46D3F8008004461D6018B98D
:104C200021252846BDE8F08190F8347007B30A6862
:104C300003689A4240F0A4804A6843689A4240F070
:104C40009F808A6883689A4240F09A80CA68C368E5
:104C50009A4240F095800A6943699A4240F09080F8
:104C60008A69C36B9A4240F08B804B698361D8E7B5
:104C700068223946856B31F068FCD6E90212336848
:104C800004F1080023607368A5636360336963619E
:104C90007369A36127F0CDF9B36904F14000E363C0
:104CA0009B68984720B9676C17B16368B3FBF7F747
:104CB00094F84330E761002BB2D00023656C236683
:104CC000002D65D0002F63D02368B3FBF5F205FB00
:104CD0001233002B56D16668B6FBF5F305FB136360
:104CE000002B4FD1204626F04CFEA3690433034429
:104CF0009E4249D340F634726369CC3B934245D817
:104D0000B5F5805F44D30321204626F063FED4E945
:104D10000001E36B1B6898470546E36B0220DB68E4
:104D20009847D5B941462046FFF7DAF96428054689
:104D300004D141462046FFF7D3F905466DB9636CAF
:104D4000226A143B204602FB03F626F01AFEA369F2
:104D5000043303449E4238BF5A25002D0CBF012363
:104D6000002384F8343007D1D4E900010A4A1368DB
:104D70000133136027F0F7F9E06B27F014F850E7E0
:104D80005D254EE759254CE75A254AE75F2548E758
:104D90005B2546E7C01D0020BC1D00202DE9FF411A
:104DA0000C4616461F46054688B390F8343083B348
:104DB000B1F5801F2FD2DFF86480012126F00AFEB2
:104DC0004246214628460DF10F03FFF7A5F802469B
:104DD000C8B99DF80F30012B10D1D8F81030BB4264
:104DE00013D1009031462846FFF75CFB0446E86B80
:104DF00026F0D9FF204604B0BDE8F081022B0CBF9D
:104E000060242D24F3E72D24F1E76324EFE7212428
:104E1000F0E71124EEE72924ECE700BF8824002006
:104E20002DE9F04385B00E4617461C460546DDF8D1
:104E30003080A0B390F834309BB3B1F5801F32D2EC
:104E4000DFF86890012126F0C5FD4A463146284624
:104E50000DF10F03FFF760F8E8B99DF80F30012B53
:104E600014D1D9F8102004EB08039A4215D3224636
:104E70000090434639462846FFF714FB0446E86B8A
:104E800026F091FF204605B0BDE8F083022B0CBF51
:104E900060242D24F3E72D24F1E76324EFE7212498
:104EA000F0E71124EEE72924ECE700BF8824002076
:104EB0002DE9F3411E4600230C4617460546336094
:104EC00050B390F834304BB3B1F5801F28D2DFF8DF
:104ED0005480012126F07EFD2146424628460DF1F0
:104EE0000703FFF719F80446A0B99DF80730032B14
:104EF00010D0022B03BF01233B600423D8F81030ED
:104F000018BF38603360E86B26F04DFF204602B0D2
:104F1000BDE8F0812D24F6E72124F7E71124F5E719
:104F20002924F3E78824002073B50446416926F05C
:104F30000DFD626E236B024493422CBF00220122BE
:104F4000834294BF00231B1A207C84F850206365A1
:104F500084F85800A8B100230B4E1A461946204683
:104F6000009627F042F8002305461A4619462046C7
:104F7000009627F043F8E3682844984294BF002045
:104F8000C01AE06502B070BDFFFF0F002DE9F347C6
:104F90001E4643690446B342884617469DF828904A
:104FA0004FD300258DF807502046616926F0CEFCCE
:104FB000D4F830A082450AD2236AB5EB430F06D25B
:104FC000002220460DF10701FFF78CF9B8B39DF8D8
:104FD0000730012B05D1002220460DF10701FFF714
:104FE00081F9B9F1030F06D03146204626F0AEFC18
:104FF000256B854227D3154D4FF0FF31284600F031
:1050000071F94B46294600222046C5E90376C5F8CA
:105010000080FFF735FB236E054663B12046FFF79E
:1050200083FF94F8503013B994F858301BB1236EB5
:1050300004F150009847284602B0BDE8F0870135DA
:10504000B2E76225F7E71C25F5E700BF5C240020E6
:105050002DE9FF410F4690461E46054698B390F84D
:10506000343093B3B1F5801F31D21A4C022126F0AF
:10507000B1FC2246394628460DF10F03FEF74CFFDE
:10508000024678B10123424600933946334628460A
:10509000FFF77CFF0446E86B26F085FE204604B04F
:1050A000BDE8F0819DF80F30012BEBD12169B142B1
:1050B000E8D10093414633462846FFF7F3F904460A
:1050C0000028DFD1E7E72124E8E71124E6E72924D7
:1050D000E4E700BF8824002030B50C46054685B0C3
:1050E00028B390F8343023B3B1F5801F23D20221C6
:1050F00026F070FC0DF10F03214628460F4AFEF7FB
:105100000BFF034688B99DF80F20032A0DD0032218
:105110002146009202462846FFF738FF0446E86B16
:1051200026F041FE204605B030BD2D24F7E72124AE
:10513000F8E71124F6E72924F4E700BF88240020CB
:105140002DE9F043466886B3056898464FF0000C99
:10515000A946AE4655F83C400CF1010CC4F31307C8
:10516000013401D0B94217D0B4450EF1080EF1D187
:105170002F46002403E0B44207F1080712D055F887
:10518000343001340133F6D1C1F3130141EA08513F
:10519000C7E90012BDE8F08341EA0851CEE90012E8
:1051A000BDE8F083B8F1030F03D101230372BDE81A
:1051B000F083002303E0B34209F10809F5D055F864
:1051C00033400133C4F30754032CF4D1C1F3130368
:1051D00043EA0853C9E90032BDE8F0832DE9F04104
:1051E0000646406882B0B8B10F4690460024336846
:1051F00053F8345003EBC403C5F30752C5F313014E
:10520000013506D05B683046CDF80080B84718B14C
:10521000706801348442EAD302B0BDE8F08100BF77
:10522000024B1968024B1868FFF7F0BC08C3012055
:1052300028C3012008B540F033FD014B186008BDBC
:10524000B4240020014B186840F025BDB424002090
:1052500073B504462248012A00EAC1119DF818508E
:1052600023F07C4007D9961E012E28D9073303F07E
:105270007F03194308E09DF81C300A43DB0603F066
:10528000C053134343F060410023C4E900108DF87C
:105290000730B5B1202221460DF1070027F07EF836
:1052A0001A220DF10700211D27F078F80820636805
:1052B0009DF8072043EA8263636002B070BD11432A
:1052C000E2E71B220DF10700214627F067F823686B
:1052D0009DF80720042043EAC2632360EDE700BF86
:1052E00080FFFF0738B5094B0D461A6800210446B8
:1052F00031F02BF900234FF0FF322383C4E900255E
:105300002361A260E382A37638BD00BFE49804085D
:105310000138C0B205289ABF014B185C01207047C4
:10532000E99804082DE9F0410746154600240E4689
:10533000596888B0490A012922464FEA510104F10F
:105340000104F8D8DC78997824031B88C90201F499
:10535000006104F480540C43C3F30A035203234452
:1053600092B24FF000089C18274B6FEA0444039355
:1053700025F07843ED4302A90DF107001B220293AB
:105380008DF8078027F00AF89DF80720029B02A9F4
:1053900043EAC2630DF107001B2225F07845049310
:1053A00002958DF8078026F0F9FF9DF80720029BF3
:1053B0006FEA144443EAC26305934FF0FF33079446
:1053C000069307A9BB69012206F110009847BB6943
:1053D00005A90446012206F108009847BB6940452B
:1053E00018BF044604A90122301D984701224045F8
:1053F00018BF0446BB69304603A99847404508BF1B
:10540000204608B0BDE8F08101009AB2044BD3F801
:105410008420D206FBD4D3F88400C0F381107047F7
:105420000040005038B5174B0546D3F828310C46DC
:1054300003F00703013B052B20D8DFE803F003133B
:105440001B0F0B173EF042F8052305B1286004B18D
:10545000236038BD3EF03AF80623F6E73EF080F8C8
:105460000723F2E73EF072F80323EEE73EF06EF812
:105470000423EAE73EF066F80223E6E70023184635
:10548000E3E700BF00800050002337B50193164BBF
:105490000546D3F820320C4603F00703042B21D82D
:1054A000DFE803F0030B11161B0001230DB1019A75
:1054B0002A6004B1236003B030BD002101A8FFF7CA
:1054C000B1FF1223F2E73EF04BF807230190EDE71E
:1054D00040F002FC0A230190E8E73EF095F809232A
:1054E0000190E3E70023E1E70080005038B5104B5E
:1054F0000546D3F850320C4603F00303022B12D0BA
:10550000032B08D0012B0AD00023184605B12860D0
:1055100004B1236038BD40F0E2FB0C23F6E740F015
:10552000DBFB0A23F2E73EF06FF80923EEE700BF4A
:105530000080005038B5104B0546D3F880300C463B
:1055400003F00303022B0BD0032B0DD0012B0FD143
:105550003DF0C2FF0E2305B1286004B1236038BDC1
:105560003DF0FEFF0723F6E73DF0B0FF0623F2E72C
:1055700000231846EFE700BF0080005038B5104BFD
:105580000546D3F800310C4603F00303022B0BD081
:10559000032B0DD0012B0FD13DF0D8FF032305B114
:1055A000286004B1236038BD3EF02EF80923F6E7E9
:1055B0003DF0D2FF0823F2E701230020EFE700BF10
:1055C0000080005038B5184B0546D3F820010C4632
:1055D00000F00700062823D8DFE800F0040A0E16C2
:1055E000121A1E00012305B1286004B1236038BDE2
:1055F0003DF06CFF0523F6E73DF0A8FF0323F2E73B
:105600003DF0AEFF0723EEE73DF09CFF0223EAE703
:105610003DF05CFF0623E6E73DF098FF0423E2E758
:1056200000231846DFE700BF0080005038B5104B5C
:105630000546D3F840310C4603F00303022B0BD090
:10564000032B0DD0012B0FD140F046FB0A2305B1EF
:10565000286004B1236038BD3DF0D6FF0923F6E78A
:1056600040F03DFB0C23F2E701230020EFE700BFF1
:1056700000800050002337B50193164B0546D3F840
:1056800060320C4603F00703013B032B1FD8DFE811
:1056900003F0020E1914002101A8FFF793FF102355
:1056A0000DB1019A2A6004B1236003B030BD00211E
:1056B00001A8FFF7BBFF1123F2E73DF051FF0723DD
:1056C0000190EDE73DF03EFF02230190E8E7002363
:1056D000E6E700BF00800050002337B50193164B6A
:1056E0000546D3F894320C4603F00703013B032B25
:1056F0001FD8DFE803F0020E1914002101A8FFF7FC
:1057000061FF10230DB1019A2A6004B1236003B038
:1057100030BD002101A8FFF789FF1123F2E73DF01A
:105720001FFF07230190EDE73DF00CFF02230190DE
:10573000E8E70023E6E700BF0080005038B5104BD3
:105740000546D3F860310C4603F00303022B0BD05F
:10575000032B0DD0012B0FD140F0BEFA0A2305B167
:10576000286004B1236038BD3DF04EFF0923F6E701
:1057700040F0B5FA0C23F2E701230020EFE700BF69
:10578000008000502E4B98424AD022D82D4B984290
:1057900040D014D82C4B984239D00AD82B4B984281
:1057A00032D02B4B98422FD02A4B98422CD000203D
:1057B0007047294B9842FAD1284B186F7047284BF5
:1057C00098422AD0274B9842F1D1244BD3F880003D
:1057D0007047254B98422BD009D8244B984223D0B0
:1057E000234B9842E3D11D4BD3F88C007047214BDB
:1057F000984221D003F5740303F510539842D6D193
:10580000164BD3F898007047144B986D7047134BA4
:10581000586E7047114B586F7047104B986F704718
:105820000E4BD3F8840070470C4BD3F888007047B8
:105830000A4BD3F890007047084BD3F89400704798
:105840000048E8010024F400C0CF6A0080841E00F4
:1058500000093D0040420F00405DC6000080E00F9F
:10586000C0EA210180BA8C01007E560380D5430234
:10587000006CDC020090D00373B50D460021114B83
:105880000191D3F88041064604F00304022C13D0A2
:10589000032C0CD0012C13D101A8FFF793FE102488
:1058A0000EB1019B336005B12C6002B070BD3DF0BC
:1058B00057FE07240190F3E73DF044FE0190EFE727
:1058C0000C46EDE70080005038B5104B0546D3F884
:1058D00040320C4603F00303022B0BD0032B0DD0F8
:1058E000012B0FD140F0F8F90A2305B1286004B16B
:1058F000236038BD3DF088FE0923F6E740F0EFF95C
:105900000C23F2E701230020EFE700BF00800050E6
:1059100038B5144B0546D3F800020C4600F00700DA
:1059200004281BD8DFE800F003090D11150001233E
:1059300005B1286004B1236038BD40F0CDF90A23D9
:10594000F6E73DF061FE0923F2E740F0C8F90C23C9
:10595000EEE73DF0E1FD0F23800AE9E7002318465A
:10596000E6E700BF0080005038B5144B0546D3F879
:1059700008020C4600F0070004281BD8DFE800F0FE
:1059800003090D111500012305B1286004B123603E
:1059900038BD40F0A1F90A23F6E73DF035FE0923B2
:1059A000F2E740F09CF90C23EEE73DF0B5FD0F2344
:1059B000800AE9E700231846E6E700BF00800050B0
:1059C000B0F5207F1FD009D8B0F5007F15D003D8DF
:1059D00068B1B0F5C07F0AD000200CE0B0F5607F60
:1059E000FAD10B4BD3F88000C0F3011003E0084B51
:1059F000186FC0F3033001307047054BD3F89000A7
:105A0000C0F30460F7E7024B186FC0F38020F2E7A1
:105A10000080005002464FF48030104B10B598665D
:105A20000020FFF7CDFF504341F671320C4BDC698B
:105A3000DA635A6804F4803422F4401259B90949EF
:105A4000884294BF00200120000502435A600CB137
:105A50000022DA6310BD0449F2E700BF0090005055
:105A600000000350005A6202002D31014209531E0A
:105A7000022B96BF074B002303EB820300F01F00AD
:105A800029B103F58053012282401A60704703F563
:105A90000053F8E7608000501FB50021B0F5807F0B
:105AA0000446CDE9001100F0CF803BD8002800F07B
:105AB000A480A0F12004602C44D8602C42D8DFE8F8
:105AC00004F09CA49CA4B4B4B4B4B4A4BE4AD46AF4
:105AD0004AA4A4A44141414141414141A4A4A47C20
